:100000000C9419040C9417320C94EC310C94C131FB
:100010000C9496310C946B310C9440310C94153146
:100020000C94EA300C944A040C944A040C944A044C
:100030000C944A040C944A040C944A040C944A0408
:100040000C944A040C944A040C944A040C944A04F8
:100050000C944A040C944A040C944A040C94A03066
:100060000C944A040C94CC320C94A2320C944A04A2
:100070000C944A040C944A040C944A040C944A04C8
:100080000C944A040C944A040C944A040C944A04B8
:100090000C944A040C944A040C944A040C944A04A8
:1000A0000C944A040C944A040C944A040C944A0498
:1000B0000C944A040C944A040C944A040C944A0488
:1000C0000C944A040C944A040C944A040C946C3228
:1000D0000C9442320C944A040C944A040C944A0442
:1000E0000C944A040C94871C0C9401110C94440643
:1000F0000C94CA180C948D100C9459060C94B228C8
:100100000C944C0C0C94DC0A0C940B0C0C94380CD6
:100110000C94DD0B0C942B1A0C9456200C9425296E
:100120000C94961C0C94D70A0C94D30B0C94580C7A
:100130000C94A0250C9438080C944A170C94EE11DA
:100140000C9463060C94CE210C94A4210C94850687
:100150000C94CB250C94AE100C94421F0C946906A1
:100160000C94010C0C941A0C0C94CA100C94420CB4
:100170000C944C040C9488080C94B0290C9419111C
:100180000C941E150C94EA2A0C94B2100C94E419E9
:100190000C9409110C945F130C946D060C947F065B
:1001A0000C9402140C94A41D0C94FE110C94520691
:1001B0000C9468180C9405110C944D1A0C94360E7E
:1001C0000C9415240C942E330C94861A0C94BB04B6
:1001D0000C94FF190C9477060C9429180C94771042
:1001E0000C9474080C9496080C942B150C949A1784
:1001F0000C94BF040C946A0E0C944A060C94AD2027
:100200000C94E5170C9485210C9489060C947209C2
:100210000C9484060C94AC0B0C94C90B0C94E50B59
:100220000C94271F0C94240C0C94670E0C94ED0B6B
:100230000C94F4240C9425090C94D6240C94BE1030
:100240000C94190A0C94C71E0C94C1100C9424250C
:100250000C9471060C941F160C94F70B0C94152D2E
:100260000C9456060C94B21E0C9463160C945F0604
:100270000C9465080C94510C0C94350E0C94BE2C07
:100280000C94BC100C949F0A0C9498100C94BA0B0C
:100290000C94F6250C94FB110C947B060C940C0822
:1002A0000C942E0C0C9461100C94F4110C94D8083E
:1002B0000C94FA110C94BF0B0C944E0641746C61B3
:1002C00073206E6F7420496D706C656D656E74651A
:1002D00064206F6E20746869732052656D6F746559
:1002E00020492F4F00496E76616C696420436F6D21
:1002F0006D616E6420666F722052656D6F7465006B
:10030000556E7265636F676E697A656420666F7299
:100310006D617420666F7220636F6D6D616E640035
:100320004D414320416464726573733A0063757292
:1003300072656E745375626E65743A00637572729D
:10034000656E74476174657761793A00637572729E
:10035000656E7449503A0044657669636520547946
:1003600070653A0056657273696F6E3A00556E7229
:1003700065636F6E67697A656420666F726D61741C
:1003800020666F7220636F6D6D616E6400726573BD
:100390006574696E6720746F2064656661756C743E
:1003A000732E20436C6F73696E6720436C69656EB2
:1003B0007420436F6E6E656374696F6E2E00544FC8
:1003C000444F207365742049503A00203177697298
:1003D00065206D203C783E203C793E0020204D6118
:1003E0007020312D576972652054656D706572619A
:1003F00074757265207820746F2073656E736F72E8
:100400006520706F736974696F6E20793A002031CE
:1004100077697265206420002020446973706C61E4
:10042000792043757272656E7420312D576972653B
:1004300020496E666F3A00312D5769726520477208
:100440006F75700072656D6F7465207200202052A8
:100450006573657420746F2044656661756C747390
:100460003A0072656D6F7465206D203C4D41433ECE
:1004700020544F444F200020204368616E67652060
:100480004D414320416464726573733A0072656D37
:100490006F74652073203C5375626E6574204D61E6
:1004A000736B3E20544F444F200020204368616E00
:1004B0006765205375626E6574204D61736B3A00F9
:1004C00072656D6F74652067203C67617465776144
:1004D000793E20544F444F200020204368616E67CE
:1004E0006520476174657761793A0072656D6F7454
:1004F000652069203C49503E20544F444F20002045
:10050000204368616E67652049503A0072656D6FDF
:1005100074652062203C626175643E20544F444FF4
:10052000200020204368616E676520536572696111
:100530006C20506F72742042617564205261746542
:100540003A002072656D6F74652064002020446954
:1005500073706C61792047656E6572616C205265BD
:100560006D6F74652044657669636520496E666FBA
:100570003A0052656D6F74652047726F7570002088
:1005800061746C6173206D20317C30200020205319
:10059000746172742F53746F7020506F6C6C696E3D
:1005A00067204D616E616765723A002061746C610D
:1005B00073206420002020446973706C61792043AB
:1005C000757272656E742053656E736F722043612D
:1005D000636865642056616C7565733A00206174C8
:1005E0006C61732073203C6368616E6E656C3E20A5
:1005F0003C7261772073656E736F7220636F6D6DEF
:10060000616E643E00202053656E64205261772045
:10061000436F6D6D616E647320746F20416C746103
:10062000732053656E736F723A0041746C6173206E
:1006300047726F7570007820616E647C6F722079EC
:10064000206F7574206F662072616E67653A00498D
:100650006E76616C696420436F6D6D616E642066B7
:100660006F7220315769726500556E7265636F67EE
:100670006E697A656420666F726D617420666F7250
:1006800020636F6D6D616E6400556E7265636F6E91
:1006900067697A656420666F726D617420666F7237
:1006A00020636F6D6D616E64004E4F2068616E64F3
:1006B0006C657220617661696C61626C653A0049B3
:1006C0006E76616C696420436F6D6D616E640000CD
:1006D000000A0B02090C0D0E0807030401000000BC
:1006E000000000000000000000000000000000000A
:1006F00000000000000000000000001211100000C7
:1007000000000000000000000000000000000000E9
:1007100000000000000000000000000000000000D9
:10072000005EBCE2613FDD83C29C7E20A3FD1F41D1
:10073000009D23BE46DB65F88C11AF32CA57E974C1
:1007400000002200250028002B002E00310034007C
:1007500002010000050108010B0100002100240036
:1007600027002A002D0030003300010100000401A1
:1007700007010A0101021020200808102040102063
:100780004080020102010804020101020408102055
:100790004080804020100804020180040201804053
:1007A00020100804020108040201010204081020BC
:1007B00040800102040810204080084004808040EE
:1007C0002010204010000020002300260029002CCB
:1007D000002F00320000010000030106010901059D
:1007E000050505070508080808020202020A0A08AA
:1007F00008040404040101010101010101030303D0
:100800000303030303040707070C0C0C0C0C0C0C6C
:100810000C0202020206060606060606060B0B0B73
:100820000B0B0B0B0B0A050A0A050A0A0404040A3F
:100830002E3311241FBECFEFD1E2DEBFCDBF00E0CB
:100840000CBF15E0A0E0B2E0E2E8F6E800E00BBF84
:1008500002C007900D92AE37B107D9F721E1AEE79C
:10086000B5E001C01D92A93EB207E1F714E0C9E16D
:10087000D4E000E006C021970109802FFE010E940C
:10088000A740C831D10780E00807A9F70E94D137F7
:100890000C943F430C940000809194059091950531
:1008A0000196909395058093940508958CBD9DBD08
:1008B0000895FC01A089B18982E08C93A485B58557
:1008C0001C92A685B78587E68C93108EA489B5897E
:1008D00086E08C93A289B3898C9180618C93A289E4
:1008E000B3898C9188608C93A289B3898C9180683C
:1008F0008C930288F389E02D80818F7D8083089519
:10090000CF93DF93D62F9C0164E0369527956A95A7
:10091000E1F7C1E0213C4EE034070CF4C0E0213C9B
:100920004EE03407F8F4F901EE0FFF1FE157F44FE2
:10093000A081B18154E0220F331F5A95E1F7821B49
:10094000930B41E050E060E070E004C0440F551F9D
:10095000661F771F8A95D2F7DD2341F04A2B5B2B68
:10096000518340838C2FDF91CF910895409550950E
:100970004A235B23F5CFFC01818D928D0895089564
:10098000DC0180E0615090F09D919827E92FEF7095
:10099000F0E0E05EF84F2491E92FE295EF70F0E08F
:1009A000E05DF84FE491822F8E27ECCF0895DC01B3
:1009B0002C911196ED91FC91F8948181822B818389
:1009C0009281322F30959323928387E090E00197B4
:1009D000F1F781818323818383E290E00197F1F72E
:1009E00090817894EFECF0E03197F1F7922381E079
:1009F00009F480E00895FC0190810180F281E02DEE
:100A0000292F209560FF14C0F8948281822382836D
:100A10008181892B8183A3E2B0E01197F1F7828174
:100A2000982B9283789487ED90E00197F1F70895E1
:100A3000F8948281822382838181892B8183AFEF25
:100A4000B0E01197F1F78281982B928378948FE030
:100A500090E0EBCFDF92EF92FF920F931F93CF9333
:100A6000DF93EC01D62EE42E08E010E0FF24F3948F
:100A700061E08D2D8F2109F460E0CE010E94FB041E
:100A8000FF0C01501109A1F7E11010C0F894E981A1
:100A9000FA8191818881809589238183E981FA8116
:100AA000928188818095892382837894DF91CF9188
:100AB0001F910F91FF90EF90DF900895EF92FF92BA
:100AC0000F931F93CF93DF938C017B0140E065E58B
:100AD0000E942A05E70188E0E80EF11C699140E0D8
:100AE000C8010E942A05CE15DF05C1F7DF91CF911D
:100AF0001F910F91FF90EF900895FC01908101806C
:100B0000F281E02DF8948181292F20958223818321
:100B100078943DE743E050E0315029F1DA01119734
:100B2000F1F780818923C1F3F89482818223828343
:100B30008181892B81837894ABE7B7E01197F1F736
:100B4000F894818182238183A3E1B1E01197F1F7C9
:100B50008081982381E009F080E07894E3E6F6E074
:100B60003197F1F7089580E008954F925F926F9268
:100B70007F928F929F92AF92BF92CF92DF92EF922D
:100B8000FF920F931F93CF93DF938C017B01EA01B8
:100B9000FC01818592850E947D058823D9F1B701EA
:100BA000F801818592850E945E0540E06EEBF801B8
:100BB000818592850E942A056E015E01F9E0AF0EE3
:100BC000B11C7E01F8018184928488E0682E712C2A
:100BD000512C44244394C4010E94D7048111542809
:100BE000440CF1E06F1A7108B1F7F70151927F01DF
:100BF000AE16BF0639F7F801818592850E947D0502
:100C0000813041F4F60181916F01811105C0EE152B
:100C1000FF05C1F790E008C068E0CE010E94C00463
:100C200091E028852813F6CF892FDF91CF911F916E
:100C30000F91FF90EF90DF90CF90BF90AF909F907B
:100C40008F907F906F905F904F9008958150823188
:100C500008F05AC0E82FF0E08827EE5CF94F8F4F7C
:100C60000C94A7405206560644064A064E068406D1
:100C700059065F06630669066D06710677067B06F0
:100C800084067F0685068906809180008F77809391
:100C900080000895809180008F7DF9CF8091800041
:100CA000877FF5CF84B58F7784BD089584B58F7D18
:100CB000FBCF8091B0008F778093B0000895809132
:100CC000B0008F7DF9CF809190008F778093900056
:100CD0000895809190008F7DF9CF80919000877F5B
:100CE000F5CF8091A0008F778093A0000895809128
:100CF000A0008F7DF9CF8091A000877FF5CF8091F4
:100D000020018F77809320010895809120018F7DAD
:100D1000F9CF80912001877FF5CF1F93CF93DF9389
:100D2000282F30E0F901E153F94F8491F901EC5893
:100D3000F84FD491F901E152F84FC491CC23A9F0B6
:100D4000162F81110E942606EC2FF0E0EE0FFF1FF8
:100D5000E05CF84FA591B4918FB7F894EC91111124
:100D600008C0D095DE23DC938FBFDF91CF911F9118
:100D70000895DE2BF8CFCF93DF9390E0FC01EC5881
:100D8000F84F24918152984FFC0184918823C9F037
:100D900090E0880F991FFC01E65AF84FA591B49195
:100DA000FC01E05CF84FC591D49161110DC09FB773
:100DB000F8948C91209582238C9388812823288312
:100DC0009FBFDF91CF910895623051F49FB7F8949F
:100DD0003C91822F809583238C93E8812E2BEFCF3B
:100DE0008FB7F894EC912E2B2C938FBFEACF1F93E3
:100DF000CF93DF93EC01862F26EE32E039832883F0
:100E00001D821C82188619861A861B8648EC50E0C3
:100E100060E070E04C875D876E877F8711E0188BFC
:100E200021E030E03F832E83282F30E03B832A836C
:100E300060E00E94BB0686E892E0998388831E8E5C
:100E40001D8E18A21F8E19A21AA21BA21CA21DA2DF
:100E50001EA21FA218A61AA619A61CA61BA61DA78D
:100E6000198A1A8A1B8A1C8A80E090E0A0E8B4E400
:100E70008D8B9E8BAF8BB88F898F9A8FAB8FBC8FEA
:100E8000DF91CF911F9108953FB7F89480919B0512
:100E900090919C05A0919D05B0919E0526B5A89BBB
:100EA00005C02F3F19F00196A11DB11D3FBFBA2FFC
:100EB000A92F982F8827BC01CD01620F711D811DBC
:100EC000911D42E0660F771F881F991F4A95D1F741
:100ED00008958F929F92AF92BF92CF92DF92EF923E
:100EE000FF926B017C010E9444074B015C01C1141D
:100EF000D104E104F104B9F00E94440768197909AA
:100F00008A099B09683E73408105910580F321E0C1
:100F1000C21AD108E108F10888EE880E83E0981E15
:100F2000A11CB11CE4CFFF90EF90DF90CF90BF9059
:100F3000AF909F908F9008952FB7F8946091970588
:100F4000709198058091990590919A052FBF089509
:100F5000CF92DF92EF92FF92CF93DF93EC018985DE
:100F60009A850E947D0540E06CEC89859A850E94F7
:100F70002A05488164E489859A850E942A058C8126
:100F80008823D9F08D818823F9F0888181111CC0D4
:100F90000E949C076B017C0189859A850E94D70479
:100FA000813059F00E949C076C197D098E099F09B8
:100FB0006E3E72408105910578F3DF91CF91FF90ED
:100FC000EF90DF90CF900895EB81E9508EEE92E0A4
:100FD000E33038F4F0E0EE0FFF1FE459FD4F80815D
:100FE00091816C01F12CE12C8981882321F060E052
:100FF0008A810E948D06C701B6010E946907898116
:101000008823D9F261E08A81DF91CF91FF90EF9040
:10101000DF90CF900C948D060895DC01ED91FC914A
:101020000190F081E02D1994EF92FF920F931F939E
:10103000CF93DF938C017B01D0E0C0E0F701EC0F90
:10104000FD1F6491662361F0D801ED91FC91019040
:10105000F081E02DC8011995892B11F02196EECF72
:10106000CE01DF91CF911F910F91FF90EF900895E6
:10107000AF92BF92CF92DF92EF92FF920F931F93A6
:10108000CF93DF936C017B018B01040F151FEB01E4
:101090005E01AE18BF08C017D10759F06991D6019B
:1010A000ED91FC910190F081E02DC6011995892BFD
:1010B00079F7C501DF91CF911F910F91FF90EF90CC
:1010C000DF90CF90BF90AF900895FC01538D448D79
:1010D000252F30E0842F90E0821B930B541710F0E3
:1010E000CF96089501970895FC01918D828D9817F0
:1010F00061F0A28DAE0FBF2FB11D5D968C91928DC8
:101100009F5F9F73928F90E008958FEF9FEF0895F8
:10111000FC01918D828D981731F0828DE80FF11DC1
:10112000858D90E008958FEF9FEF0895FC01918DDC
:10113000228D892F90E0805C9F4F821B91098F73D5
:10114000992708958FEF9FE00E94960821E0892B50
:1011500009F420E0822F089584EF95E00E9496081C
:1011600021E0892B09F420E0822F0895FC01A48D51
:10117000A80FB92FB11DA35ABF4F2C91848D90E0B9
:1011800001968F739927848FA689B7892C93A0899C
:10119000B1898C91837080648C93938D848D981326
:1011A00006C00288F389E02D80818F7D80830895B9
:1011B000EF92FF920F931F93CF93DF93EC0181E0A7
:1011C000888F9B8D8C8D98131AC0E889F98980814E
:1011D00085FF15C09FB7F894EE89FF896083E88981
:1011E000F98980818370806480839FBF81E090E073
:1011F000DF91CF911F910F91FF90EF900895F62E00
:101200000B8D10E00F5F1F4F0F731127E02E8C8D99
:101210008E110CC00FB607FCFACFE889F9898081DE
:1012200085FFF5CFCE010E94B608F1CFEB8DEC0F14
:10123000FD2FF11DE35AFF4FF0829FB7F8940B8FFB
:10124000EA89FB8980818062CFCFCF93DF93EC0165
:10125000888D8823B9F0AA89BB89E889F9898C919E
:1012600085FD03C0808186FD0DC00FB607FCF7CF5A
:101270008C9185FFF2CF808185FFEDCFCE010E945A
:10128000B608E9CFDF91CF91089580E090E0892BF7
:1012900029F00E94AC0881110E94000080E090E0DB
:1012A000892B49F080E090E0892B29F00E94000012
:1012B00081110E94000080E090E0892B29F00E94BB
:1012C000A20881110E94000080E090E0892B49F083
:1012D00080E090E0892B29F00E94000081110C949D
:1012E0000000089508954F925F926F927F92AF929F
:1012F000BF92CF92DF92EF92FF920F931F93CF9303
:10130000DF9300D000D000D0CDB7DEB77C018C01D8
:101310006C0149E6C40ED11C412C512CFCEF6F2E00
:10132000F2EC7F2E5C0151E9A50EB11CD801949618
:101330004D925D926D927C92979792968C918823B4
:1013400009F455C0AE014F5F5F4FB801665E7F4F35
:10135000C5010E94B505811105C060E070E08EEF07
:1013600092EC3EC06A8170E0762F6627770F770F88
:10137000770F2981B8E02B9F90011124262B372B62
:10138000F801828D8031E1F468856623C9F070E050
:101390008F81AB01481B5109CA019695982F882768
:1013A000979587950E949340CB018097B90153E0B0
:1013B000660F771F5A95E1F760789C01260F371F5B
:1013C000213854EE35074CF2B901330F880B990BD5
:1013D0000E94034220E030E040E05CE30E94B8421B
:1013E000D80194966D937D938D939C939797015F0D
:1013F0001F4F0C151D0509F099CFD7015896ED9197
:10140000FC91309709F0199529960FB6F894DEBF34
:101410000FBECDBFDF91CF911F910F91FF90EF9045
:10142000DF90CF90BF90AF907F906F905F904F9084
:1014300008950F931F93CF93DF93FC01E455FF4F63
:1014400020812223C9F1EC0133978081882361F048
:10145000CE018F569F4F0E94A807CE01DF91CF91FA
:101460001F910F910C9473098E0108551F4FF801BD
:101470008081811111C0CE018F569F4F0E94A80715
:1014800081E0F801808384E893E0A0E0B0E08C87FD
:101490009D87AE87BF8710C0CE010E947309F801F7
:1014A0001082FE01E655FF4F80819181B0E0A0E0FF
:1014B0000097A105B10559F7DF91CF911F910F91C9
:1014C0000895CF92DF92EF92FF920F931F93CF93E5
:1014D000DF93FC012089222349F1EC010E949C0743
:1014E000088519852A853B856B017C01C01AD10AC4
:1014F000E20AF30A0C851D852E853F850C151D0516
:101500002E053F0598F4688779878A879B87E8814D
:10151000F9810280F381E02DCE01DF91CF911F91FF
:101520000F91FF90EF90DF90CF901994DF91CF91C2
:101530001F910F91FF90EF90DF90CF9008950F9340
:101540001F93CF938C01C62FFC018085882319F04F
:10155000C18581E0C8276C2FF80182810E948D0629
:10156000F801C287CF911F910F910895CF93DF9318
:10157000EC01862F26ED32E0398328831F821E82FC
:1015800018861D821C82262F30E03B832A8361E06F
:101590000E94BB068EE792E09983888381E08A8768
:1015A000898760E0CE01DF91CF910C949F0A60E0C3
:1015B00086E999E00C949F0ACF92DF92EF92FF9216
:1015C0000F931F93CF93DF93EC012A813B81332745
:1015D000F901E153F94F8491F901EC58F84F049166
:1015E000F901E152F84F1491112379F081110E9411
:1015F0002606E12FF0E0EE0FFF1FEB53F84FA59109
:10160000B491EC910E2381E009F480E08170898B24
:101610009B89891731F00E949C076F8B788F898F87
:101620009A8F0E949C070F89188D298D3A8D6B0126
:101630007C01C01AD10AE20AF30A970186014D899A
:101640005E8970E060E089898B8B401751076207E3
:10165000730718F58C8BEB8DFC8D309711F090E0B3
:1016600019952F8D38A121153105B9F089899A89ED
:10167000891799F041E050E0992311F042E050E0E1
:101680008A8B2230310591F02330310591F02130E1
:10169000310519F44130510561F0DF91CF911F916F
:1016A0000F91FF90EF90DF90CF9008954230510559
:1016B000A1F7ED8DFE8D309781F36A817B81DF91FB
:1016C000CF911F910F91FF90EF90DF90CF901994E1
:1016D000DF92EF92FF920F931F93CF93DF937C01E2
:1016E000D62EFC0180858111D12CCD2DD0E0F701C3
:1016F0000281138161E0802F0E94BB06209729F4AC
:1017000060E0802F0E948D062BC0CF3FD10511F4E1
:1017100061E0F7CFF801FF27E153F94FE491E15081
:10172000E23108F0B9C0F0E08827E656F44F8F4F59
:101730000C94A740AC0BBA0BBF0BC90BD30B4C0CD2
:10174000DD0BE50BED0BF70B010C0B0C1A0C240C4D
:101750004C0C2E0C380C420C84B5806884BDD7BC70
:10176000F701D186DF91CF911F910F91FF90EF90FC
:10177000DF90089584B5806284BDD8BCF1CF80919C
:101780008000806880938000D0938900C093880097
:10179000E7CF80918000806280938000D0938B009F
:1017A000C0938A00DDCF80918000886080938000A4
:1017B000D0938D00C0938C00D3CF8091B00080680F
:1017C0008093B000D092B300CBCF8091B000806204
:1017D0008093B000D092B400C3CF80919000806815
:1017E00080939000D0939900C0939800B9CF8091D6
:1017F0009000806280939000D0939B00C0939A00E9
:10180000AFCF80919000886080939000D0939D002E
:10181000C0939C00A5CF8091A00080688093A00019
:101820008091A0008F7B8093A000D093A900C093EB
:10183000A80096CF8091A00080628093A000D093F2
:10184000AB00C093AA008CCF8091A00088608093E9
:10185000A000D093AD00C093AC0082CF8091200156
:10186000806880932001D0932901C093280178CF0C
:1018700080912001806280932001D0932B01C0933E
:101880002A016ECF80912001886080932001D0933F
:101890002D01C0932C0164CFC038D1050CF038CF96
:1018A0002FCF662319F06FEF0C94680B60E0FCCF2C
:1018B0008F929F92AF92BF92CF92DF92EF92FF9260
:1018C0000F931F93CF93DF93EC018A81863308F047
:1018D000865320917B00982F9870277F922B9093AE
:1018E0007B008770806480937C0080917A008064A4
:1018F00080937A0080917A0086FDFCCF80917800F9
:1019000000917900102F082FC988DA88EB88FC88AD
:10191000A70196016D897E898F89988D0E94E74085
:101920004B015C01B80190E080E00E9401429B0104
:10193000AC01C501B4010E94B84220E030EC4FE791
:1019400054E40E945941A70196010E94E8406B01AE
:101950007C018DA5811124C08F8D98A1B801681BD1
:10196000790B77FF03C0719561957109072E000C03
:10197000880B990B0E9403424B015C01298D3A8D23
:101980004B8D5C8D6DA17EA18FA198A50E94B84260
:101990009B01AC01C501B4010E94B34287FD0DC09B
:1019A000C9A2DAA2EBA2FCA218A30F8FEBA5FCA59B
:1019B000309719F0C701B60119951E8F0D8FE9A553
:1019C000FAA5309719F0C701B60119951DA6DF9148
:1019D000CF911F910F91FF90EF90DF90CF90BF902C
:1019E000AF909F908F9008954F925F926F927F92E9
:1019F0008F929F92BF92CF92DF92EF92FF920F93BE
:101A00001F93CF93DF93CDB7DEB7DA950FB6F89477
:101A1000DEBF0FBECDBF8C01B62EDC0112968C91BD
:101A200089836A83B4E0F8016B1336C083819481A3
:101A30009B838C83858196819D838E83E6E02E2F08
:101A400030E081E08E0F90E042E04E0FBE016F5F0C
:101A50007F4F7B0175E0B71639F1A6E0BA1699F110
:101A60006701D7018FEF9FEF9E2C2A2F2E192E177B
:101A700070F52D91822728E030E0AC0141705527A8
:101A800096958795452B21F0F1E08F27F0EA9F2767
:101A90002150310991F7E9CFE957FF4F80819181BA
:101AA0009B838C83E4E0CBCFF801E757FF4F508155
:101AB00061812E0D3F1DF90160838E0D9F1DDC019C
:101AC0005C93E42FCDCFF801E557FF4FF0CFD7015E
:101AD000AE0FB11D8C93F2E08F2E8E0EEF5FEE0DE8
:101AE000FF2DF11D9083F701E80DF11D1082D80143
:101AF0008D919C91DC01ED91FC910284F385E02DA8
:101B000019950196A1F7F801EA5EFE4F0190F08168
:101B1000E02D309709F01995F80180819181DC0161
:101B2000ED91FC912C2D2919281540F4D6016D91C9
:101B30006D010190F081E02D1995EECF0680F781BF
:101B4000E02D1995F801E85EFE4F0190F081E02D3F
:101B5000309709F019950E949C072B013C01E8E0A1
:101B6000CE2ED12C4801BCEE8B1ABEEF9B0AF80199
:101B700080819181DC01ED91FC910084F185E02D63
:101B80001995892B09F448C0F80180819181DC0105
:101B9000ED91FC910284F385E02D1995F701ED0D8F
:101BA000F11D8083CA94D394B5E0DB125FC09981A4
:101BB000F8018281981322C1EA818E2F8F778B11D1
:101BC0001FC1E7FF31C08B81811162C08FEF9FEF92
:101BD00040E0CD2CD12CD6011297242F30E02A17CB
:101BE0003B070CF0B5C02E0D3F1DF9012081822767
:101BF00028E030E0BC016170772796958795672BC8
:101C000021F0F1E08F27F0EA9F272150310991F769
:101C10004F5FE3CF82EE37C0D401ED91FC91309756
:101C200009F4C2CF1995C0CFE150E731F8F4F0E0E4
:101C30008827E25EF14F8F4F0C94A740350E350E8A
:101C4000350E350E6A0E6A0E360E360E360E360E0E
:101C5000360E360E360E360E6A0E6A0E360E360EFC
:101C6000360E360E360E670E350ECB800E949C0760
:101C70006419750986099709613D774081059105C9
:101C800008F0C8CF80E0CC2041F1882309F46FCF61
:101C9000F801E35FFE4F1082319611821082349674
:101CA0001082D3950FB6F894DEBF0FBECDBFDF9183
:101CB000CF911F910F91FF90EF90DF90CF90BF9049
:101CC0009F908F907F906F905F904F90089575E0F8
:101CD000C72ECCCF63E0C62EC9CF8111D9CF24E067
:101CE0002D1508F473CF8A81853030F4833030F4B9
:101CF0008130E0F580E0CCCF8731E1F74B8150E0D7
:101D00005595479580E068012DEEC21A2EEFD20A54
:101D1000282F30E0241735076CF78034A8F4F90138
:101D20003296EE0FFF1F220F331F200F311FBE010F
:101D30006E0F7F1FDB016C91EE0DFF1D9081762FE2
:101D4000692FF90170876783D6018C938F5FE0CF8D
:101D5000AE0DBF1D2C91281307C0F601EC0FFD1F1F
:101D60008081891709F4BFCF83EE92CF6B81462F14
:101D700050E05595479520E068017DEEC71A7EEF4B
:101D8000D70A822F90E0841795070CF52034D8F4F9
:101D9000880F991FD801A80FB91FF5E0EF2EF12C7D
:101DA000EC0EFD1EE80EF91EF7013081E4E0F0E0D4
:101DB000EC0FFD1F8E0F9F1FFC018081932F189643
:101DC0009C938E931797D6012C932F5FDACF60FFE9
:101DD00091CF203468F4880F991FF801E80FF91F9C
:101DE0008C0F9D1FDC0114968C9190E09087878367
:101DF000F801ED5EFE4F2F5F20837CCF80EE48CF51
:101E000081EE46CFFC0120812EBD9B01215031097E
:101E100041F051810DB407FEFDCF4EB55EBD41933B
:101E2000F5CF61507109860F971F0DB407FEFDCFE6
:101E30002EB5FC0120830895E091E805F091E905B5
:101E400080819091E705892B80830895E091E805D2
:101E5000F091E90590818091E70580958923808341
:101E600008958EBD00000DB407FEFDCF8EB5089518
:101E7000AF92BF92CF92DF92EF92FF920F931F9398
:101E8000CF93DF9300D000D01F921F92CDB7DEB763
:101E90008C017B016A018091EB058333E1F45801E9
:101EA000A40EB51EA016B10609F46FC00E94260F3D
:101EB00080EF0E94310F812F0E94310F802F0E94EE
:101EC000310F0F5F1F4FF70181917F010E94310F8A
:101ED0000E941C0FE7CF5B01A40EB51E8433C1F432
:101EE0000E94260F19830A838D2D80688B83CC82F4
:101EF00064E070E0CE0101960E94020FAE14BF04B0
:101F000009F441C0F70181917F010E94310FF6CFA2
:101F10000E94260F0F3F110509F028F419820A8349
:101F200084E08B830CC017FD17C019820A8333E04D
:101F3000169507953A95E1F7007E0C600B8386E0D5
:101F4000C816D104A0F5F701DE011496EA15FB05C9
:101F500099F081918D93FACFC80126E096958795E7
:101F60002A95E1F7807E19830A830115104C10F43D
:101F70008461D7CF8C61D5CFB6016D5F7F4FCE0125
:101F800001960E94020F0E941C0FC60128960FB6F0
:101F9000F894DEBF0FBECDBFDF91CF911F910F919F
:101FA000FF90EF90DF90CF90BF90AF90089563E0E7
:101FB00070E0CE0101960E94020FF70181917F012E
:101FC0000E94310FAE14BF04C1F7DDCFCF93DF9372
:101FD0001F92CDB7DEB7898341E050E0BE016F5F4D
:101FE0007F4F90E080E00E94380F0F90DF91CF91FB
:101FF000089590E02091EB05233339F40C96982F47
:10200000990F990F990F80E008954896F8CFDA015B
:10201000E091EC05F0E0FE2FEE27E60FF71F90E0D1
:10202000982F8827A901BD018E0F9F1F0C94380F90
:10203000CF93DF931F921F92CDB7DEB779836A8368
:1020400022E030E0AE014F5F5F4F60E170E00E9440
:1020500007100F900F90DF91CF910895CF93DF93EA
:102060001F921F92CDB7DEB779836A8322E030E0FA
:10207000AE014F5F5F4F64E070E00E9407100F9069
:102080000F90DF91CF910895CF93DF931F92CDB73B
:10209000DEB72091EC0530E0322F2227260F371FC4
:1020A00090E0982F8827498341E050E0BE016F5FA0
:1020B0007F4F820F931F0E94380F0F90DF91CF91B7
:1020C0000895CF93DF931F92CDB7DEB76983DC010C
:1020D000ED91FC910280F381E02D41E050E0BE01E2
:1020E0006F5F7F4F19950F90DF91CF910895CF9338
:1020F000DF931F92CDB7DEB76983DC01ED91FC91D0
:102100000280F381E02D41E050E0BE016F5F7F4F20
:1021100019950F90DF91CF910895FC019485FB01F3
:102120008485981303C081E0983008F080E008951A
:10213000CF93DF931F92CDB7DEB76983DC01ED91BA
:10214000FC910280F381E02D41E050E0BE016F5F21
:102150007F4F19950F90DF91CF910895FC017687FD
:1021600065870895DC01ED91FC91068CF78DE02DDB
:10217000199591E089270895862F089581E0862793
:10218000089521E0FC018485883008F020E0822F4A
:1021900008950895FF920F931F93CF93DF93EB0160
:1021A000FC01178A168A2A81211109C02B8121116D
:1021B00006C02C81211103C02D81222301F141157C
:1021C0005105E9F08A01FC01F08C80E591E00E9464
:1021D0005604AE014E5F5F4F24E030E06CE070E0EB
:1021E0008F2D0E940710B8018F2D0E94181081E0DA
:1021F00090E0DF91CF911F910F91FF90089580E0C3
:10220000F7CFFC01848595850895FC018489958923
:10221000089526EF32E0FC0131832083FB014089E1
:10222000518962897389FC01428353836483758376
:102230000895DC01ED91FC91048CF58DE02D19944D
:10224000861749F0882319F081E0862708956623D0
:1022500011F082E0089580E008954F925F927F929E
:102260008F929F92AF92BF92CF92DF92EF92FF92A6
:102270000F931F93CF93DF93DC012B01C02FB90184
:10228000CA012E2D3F2D402F512F00E20E94B84051
:1022900049015A01542F4B2D70E060E098248924A5
:1022A0009824B12CA12C540199248824842A952A9D
:1022B000A62AB72ACD01880F991F8157944FFC0198
:1022C000B182A082AA0FBB1FAF56B44F8D929C92D1
:1022D0006E2D7F2D8C2F912F0E94AF40609388052B
:1022E0007093890580938A0590938B05D201AA0F7C
:1022F000BB1FA157B44F8D939C93F201EE0FFF1FAC
:10230000EF56F44F71836083DF91CF911F910F914E
:10231000FF90EF90DF90CF90BF90AF909F908F9005
:102320007F905F904F900895DC01ED91FD91808149
:10233000ED91FD919081ED91FD916C9163708E23F3
:1023400009F064609F2309F06860E1EBF1E1E60FBA
:10235000F11D659565956D936D917D918D919D9123
:10236000099423C01AC012C016C010C01EC009C0F4
:1023700014C013C006C019C009C00DC007C00DC0ED
:1023800014C062507040804090400BC0615070405B
:102390008040904006C06E5F01C06F5F7F4F8F4FDF
:1023A0009F4F9E938E937E936E9308958091E20645
:1023B0009091E3060C9494118091E4069091E506C7
:1023C0000C9494118091E6069091E7060C94941178
:1023D0008091E8069091E9060C9494118091EA06A8
:1023E0009091EB060C9494118091EC069091ED067F
:1023F0000C949411089590E080E00895CF93DF93BA
:10240000EC0188E290E09D8B8C8B86E090E09F8BC6
:102410008E8B64E0CE0141960E94F40CAE01455DC6
:102420005E4F9E01215D3E4FBE016D5C7E4F81116E
:102430001EC08A8D9B8DA88DB98DFA0180839183F2
:10244000A283B3838E8D9F8DAC8DBD8DF90180836A
:102450009183A283B3838AA19BA1A8A1B9A1FB0107
:1024600080839183A283B383DF91CF91089580E02D
:1024700090E0ACEFB2ECFA0180839183A283B38346
:10248000F90180839183A283B383E9CF0F931F93D4
:10249000CF93DF93EC01862F8A0126EE32E0398359
:1024A00028831D821C82188619861A861B8648EC92
:1024B00050E060E070E04C875D876E877F8791E039
:1024C000988B1F821E82282F30E03B832A8360E096
:1024D0000E94BB0686E792E099838883198A1A8A4C
:1024E0001B8A1C8A84E690E09E8B8D8B1F8A188E37
:1024F000198E1A8E1C8E1B8E1E8E1D8E18A30F8F8A
:10250000DF91CF911F910F910895BF92CF92DF92EB
:10251000EF92FF920F931F93CF93DF93EC01B62EB0
:10252000C72E8D85811105C0CE010E947D058111C8
:102530000EC01B861D861C8680E0DF91CF911F9107
:102540000F91FF90EF90DF90CF90BF90089540E003
:1025500060EFCE010E942A0501E0E12CD12C11E0B0
:10256000CE010E94D704F82ECE010E94D70491E03C
:10257000F91218C0813099F51134D8F2DB86D110E8
:1025800002C081E08D878B81882399F22396EB2D01
:10259000FC2DCF01089629912193E817F907D9F767
:1025A00081E0CBCFEE2DF0E0F8120FC08B8518172D
:1025B000A0F4DE01AE0FBF1F13968C91802379F437
:1025C000F12C193008F41C87D12EEC0FFD1F8381EC
:1025D000902F9095892383830AC08113F1CFFE0148
:1025E000EE0DF11D8381802B8383FF24F3946F2DE7
:1025F000CE010E94FB041F5F000F11F4E39401E081
:1026000087E08E1508F0ACCFB7CFEF92FF920F9313
:102610001F93CF93DF9300D000D01F921F92CDB7AE
:10262000DEB70EEE16E0F12CEE24E394BE016F5FF0
:102630007F4F81E797E00E9485128823E1F087E0D1
:10264000F816C9F0F801F0A6E2A288E0FE01319682
:10265000D8015A9601900D928A95E1F767E0C8017A
:102660004A960E94C004F80191A18913E3A2F39451
:10267000015F1F4FDBCF10927C0710927E071092F4
:102680007D0710927B0710927A07109279071092BB
:1026900078071092770710927607109275071092BC
:1026A00074078F2D28960FB6F894DEBF0FBECDBFEE
:1026B000DF91CF911F910F91FF90EF9008950E94AD
:1026C0002A43FB0101900020E9F73197AF01461B37
:1026D000570BDC01ED91FC910280F381E02D199400
:1026E0008F929F92AF92BF92EF92FF920F931F93A0
:1026F000CF93DF93CDB7DEB7A1970FB6F894DEBFC7
:102700000FBECDBF7C01FA01CB0119A2223008F423
:102710002AE08E010F5D1F4F822E912CB12CA12C2F
:10272000BF01A50194010E947140F901CA016A30FC
:102730000CF5605DD8016E938D01232B242B252B86
:1027400079F790E080E0109721F0BD01C7010E9469
:102750006113A1960FB6F894DEBF0FBECDBFDF9117
:10276000CF911F910F91FF90EF90BF90AF909F90EE
:102770008F900895695CDECFCF92DF92EF92FF9247
:102780000F931F93CF93DF936B01770FEE08FF0832
:10279000F7FE1BC0EC016DE20E940D088C0144277E
:1027A0005527BA014C195D096E097F092AE0CE014F
:1027B0000E947013800F911FDF91CF911F910F9195
:1027C000FF90EF90DF90CF9008952AE0B701A60127
:1027D000DF91CF911F910F91FF90EF90DF90CF90FD
:1027E0000C9470139A01452B39F4DC01ED91FC91A6
:1027F0000190F081E02D1994462F50E070E060E0E8
:102800000C9470138F929F92AF92BF92CF92DF92EF
:10281000EF92FF920F931F93CF93DF937C018B0175
:102820004C0182E0880E911C5701E5E0AE0EB11C10
:10283000D0E0C0E0F40161914F014AE050E0C801EE
:102840000E94F2136C016EE2C8010E940D088C0D0B
:102850009D1DC80FD91F8A149B0461F74AE050E000
:10286000F7016581C8010E94F2138C0F9D1FDF9153
:10287000CF911F910F91FF90EF90DF90CF90BF907D
:10288000AF909F908F9008959C01CB01B9010C945B
:1028900002148F929F92AF92BF92CF92DF92EF92EB
:1028A000FF920F931F93CF93DF93EC016A017B019B
:1028B000AB019601CB01B6010E94254368E073E0AD
:1028C000811126C046015701E894B7F82FEF3FEF7A
:1028D0004FE75FE7C501B4010E94254381110CC099
:1028E0002FEF3FEF4FE75FE7C501B4010E9454416E
:1028F0006CE073E0181664F02FEF3FEF4FE75FE4F2
:10290000C701B6010E94B34218168CF460E173E06F
:10291000CE01DF91CF911F910F91FF90EF90DF904B
:10292000CF90BF90AF909F908F900C9461132FEF3A
:102930003FEF4FE75FECC701B6010E94544187FDAE
:10294000E5CF20E030E0A901C701B6010E94544163
:1029500010E000E087FF09C06DE2CE010E940D0883
:102960008C01F7FAF094F7F8F0942AE037ED43EA97
:102970005BE3C701B6010E94E8406B017C010E9445
:10298000D2414B015C010E9401429B01AC01C70195
:10299000B6010E94E7406B017C012AE0B501A40169
:1029A000CE010E947013080F191F6EE2CE010E9423
:1029B0000D08080F191F20E030E040E251E4C70184
:1029C000B6010E94B8424B015C010E94D2416B01EA
:1029D000F12CE12C2AE0B701A601CE010E94701370
:1029E000080F191FC701B6010E9401429B01AC01EB
:1029F000C501B4010E94E74020E030E040E251E42C
:102A00000E94B8420E94D241AB0170E060E02AE02F
:102A1000CE010E947013800F911FDF91CF911F9103
:102A20000F91FF90EF90DF90CF90BF90AF909F906D
:102A30008F90089564E173E00C946113CF93DF935A
:102A4000EA016CEB72E0CA010E941408CE01DF912A
:102A5000CF910C941A15CF93DF93EA016AE276E0E6
:102A6000CA010E941408CE010E941A1565E076E0A2
:102A7000CE010E9414086DED75E0CE010E9414088D
:102A8000CE010E941A1565EB75E0CE010E94140874
:102A90006BEA75E0CE010E941408CE010E941A155F
:102AA0006DE875E0CE010E9414086FE775E0CE0175
:102AB0000E941408CE010E941A1562E775E0CE014B
:102AC0000E941408CE010E941A156CE475E0CE0134
:102AD0000E94140862E475E0CE010E941408CE0141
:102AE0000E941A1562E275E0CE010E9414086CE0A3
:102AF00075E0CE010E941408CE010E941A156FEFF6
:102B000074E0CE010E9414086BEE74E0CE010E94C6
:102B10001408CE010E941A1569ED74E0CE010E94DE
:102B2000140860EC74E0CE010E941408CE010E94EB
:102B30001A156AEA74E0CE010E9414086DE874E088
:102B4000CE010E941408CE010E941A1567E774E0B6
:102B5000CE010E94140862E674E0CE010E941408BF
:102B6000CE010E941A156DE474E0CE010E94140893
:102B700064E474E0CE010E941408CE010E941A158C
:102B800067E374E0CE010E941408CE010E941A157A
:102B900068E174E0CE010E9414086EE074E0CE019A
:102BA0000E941408CE010E941A156CED73E0CE014C
:102BB0000E9414086BEC73E0CE010E941408CE0151
:102BC000DF91CF910C941A150C946113EF92FF9240
:102BD0001F93CF93DF93EC0167E173E00E94E4154C
:102BE0008EEEE82E85E0F82E10E069E173E0CE016C
:102BF0000E94E415F70181917F01803120F460E3A8
:102C0000CE010E940D0840E150E0F701319760814C
:102C1000CE010E94F213153029F06CE173E0CE0171
:102C20000E94E4151F5F163001F767EC73E0CE01D8
:102C3000DF91CF911F91FF90EF900C94E415FF92DC
:102C40000F931F93CF93DF936EE173E084EF95E0D2
:102C50000E94E41584EF95E00E941A150FEF16E02C
:102C6000D0E0C0E08FE0F82E69E273E084EF95E0F9
:102C70000E94E415BE0184EF95E00E94BC136EE251
:102C800073E084EF95E00E94E415D801ED918D0189
:102C9000FE9EF0011124E251F94F44A155A166A115
:102CA00077A184EF95E00E94491484EF95E00E949B
:102CB0001A152196C730D105B9F6DF91CF911F9132
:102CC0000F91FF9008959F92AF92BF92CF92DF92A3
:102CD000EF92FF920F931F93CF93DF937C01EB0151
:102CE000942ECB010E941A1564E373E0CE010E947A
:102CF000E415CE010E941A15670181E1C80ED11CAE
:102D000010E00FE062E473E0CE010E94E4154AE0B7
:102D100050E0612FCE010E94F21368E473E0CE010F
:102D20000E94E415F60161916F014AE050E0CE0186
:102D30000E94F2136BE473E0CE010E94E415F601E9
:102D400031978081F701089FE00DF11D112444A106
:102D500055A166A177A1CE010E944914CE010E941F
:102D60001A151F5F173071F6CE010E941A1569E51A
:102D700073E0CE010E94E415CE010E941A1587016E
:102D8000065E1F4F6701F3E8CF0ED11C65E673E0C6
:102D9000CE010E94E4154AE050E0F8016685CE01BC
:102DA0000E94F2136EE673E0CE010E94E415580112
:102DB000F12C69E173E0CE010E94E415F5018191E7
:102DC0005F01803120F460E3CE010E940D0840E1F4
:102DD00050E0F50131976081CE010E94F213F7E0D7
:102DE000FF1629F06CE173E0CE010E94E415F39424
:102DF00088E0F812DECF67E0C8010E94C004F80145
:102E00009781891729F069E773E0CE010E94E415E4
:102E100067E873E0CE010E94E415F801608570E078
:102E2000CE010E94BC136BE473E0CE010E94E41556
:102E3000F8014285538564857585CE010E94491449
:102E400067EC73E0CE010E94E415CE010E941A15D2
:102E5000015F1F4F0C151D0509F098CF992071F0E7
:102E6000CE01DF91CF911F910F91FF90EF90DF90F6
:102E7000CF90BF90AF909F900C941A15DF91CF9197
:102E80001F910F91FF90EF90DF90CF90BF90AF9088
:102E90009F900895FF920F931F93CF93DF938C0120
:102EA000EB01F42E62E973E0CE010E94E415F80113
:102EB00062817381CE010E94BC1368E973E0CE0188
:102EC0000E94E415F8018681978161E4892B09F459
:102ED00064E4CE010E940D0864EA73E0CE010E9412
:102EE000E415F80144855585668577852AE0CE018D
:102EF0000E94701366EB73E0CE010E94E415F801A6
:102F0000608970E0CE010E94BC1366EC73E0CE01D4
:102F10000E94E415FF2041F0CE01DF91CF911F9177
:102F20000F91FF900C941A15DF91CF911F910F9183
:102F3000FF900895FF920F931F93CF93DF938C011F
:102F4000EB01F42E62E973E0CE010E94E415F80172
:102F500062817381CE010E94BC1369EC73E0CE01E3
:102F60000E94E415F801618581E0682770E0CE01D8
:102F70000E94BC1367ED73E0CE010E94E415F801D6
:102F8000608570E0CE010E94BC1364EE73E0CE0158
:102F90000E94E415F801628570E0CE010E94BC1326
:102FA00066EC73E0CE010E94E415FF2041F0CE01F3
:102FB000DF91CF911F910F91FF900C941A15DF9123
:102FC000CF911F910F91FF900895FF920F931F9340
:102FD000CF93DF938C01EB01F42E40E00E944A175F
:102FE00063EF73E0CE010E94E415F801648970E09C
:102FF000CE010E94BC1362E074E0CE010E94E41591
:10300000F8014589568970E060E02AE0CE010E940F
:10301000701361E174E0CE010E94E415F801678D40
:1030200070A1CE010E94BC1367EC73E0CE010E9438
:10303000E415FF2041F0CE01DF91CF911F910F9158
:10304000FF900C941A15DF91CF911F910F91FF9073
:103050000895FF920F931F93CF93DF938C01EB01A1
:10306000F42E62E973E0CE010E94E415F80162815A
:103070007381CE010E94BC1367ED73E0CE010E9404
:10308000E415F801608570E0CE010E94BC1365E292
:1030900074E0CE010E94E4154AE050E0F801618539
:1030A000CE010E94F21366EC73E0CE010E94E4159B
:1030B000FF2041F0CE01DF91CF911F910F91FF9042
:1030C0000C941A15DF91CF911F910F91FF900895E5
:1030D000FF920F931F93CF93DF938C01EB01F42E9C
:1030E00040E00E944A1764E374E0CE010E94E415B8
:1030F000F801458D568D70E060E02AE0CE010E9417
:1031000070136DE374E0CE010E94E415F80141A153
:1031100052A163A174A1CE010E9449146DE474E030
:10312000CE010E94E415F80145A156A167A170A542
:10313000CE010E94491468E574E0CE010E94E415B6
:10314000F8014189528963897489CE010E9449142A
:103150006FE574E0CE010E94E415F80145895689B7
:103160006789708DCE010E94491467EC73E0CE012F
:103170000E94E415FF2041F0CE01DF91CF911F9115
:103180000F91FF900C941A15DF91CF911F910F9121
:10319000FF900895FF920F931F93CF93DF938C01BD
:1031A000EB01F42E63E774E0CE010E94E415F80110
:1031B000E55DFE4F4081518162817381CE010E94A5
:1031C00049146FE774E0CE010E94E415F801E15D57
:1031D000FE4F4081518162817381CE010E9449146A
:1031E0006DE874E0CE010E94E415F801ED5CFE4F3D
:1031F0004081518162817381CE010E94491466EC45
:1032000073E0CE010E94E415FF2041F0CE01DF9172
:10321000CF911F910F91FF900C941A15DF91CF91D0
:103220001F910F91FF900895AF92BF92CF92DF92BE
:10323000EF92FF920F931F93CF93DF9300D01F92D3
:10324000CDB7DEB78C016B017A018091EB0583333A
:10325000E9F45B016801C40ED51EC016D106A9F1C0
:103260000E94260F8FE00E94310F812F0E94310FA4
:10327000802F0E94310F0F5F1F4F80E00E94310F9F
:10328000F50181935F010E941C0FE7CF843369F53C
:103290000E94260F19830A838F2D8F778B83EC82F0
:1032A00064E070E0CE0101960E94020FA70170E079
:1032B00060E0C6010E942F43E114F10421F0B70140
:1032C000C6010E94020F0E941C0FC7010F900F90B1
:1032D0000F900F90DF91CF911F910F91FF90EF9082
:1032E000DF90CF90BF90AF9008950E94260F0F3FC0
:1032F000110509F030F419820A831B8263E070E043
:10330000D1CF17FD0BC019820A8333E016950795BC
:103310003A95E1F7007E08600B83F0CFC80126E004
:10332000969587952A95E1F7807E19830A83011582
:10333000104C18F480618B83E1CF8861FCCFCF9370
:10334000DF931F92CDB7DEB72091EC0530E0322F2E
:103350002227260F371F90E0982F882741E050E062
:10336000BE016F5F7F4F820F931F0E9414198981E6
:103370000F90DF91CF910895CF93C82F462F61E032
:1033800070E00E94441061E070E08C2F0E949F1951
:103390008111F9CFCF910895CF93C82F80E591E0A7
:1033A0000E94560468E070E08C2FCF910C94BC19F9
:1033B000CF93C82F80E591E00E94560460E170E051
:1033C0008C2FCF910C94BC19CF93DF93EC01888D97
:1033D000883020F40E94D81988E0888FDF91CF913F
:1033E000089563E070E00C949F19CF93C82F80E597
:1033F00091E00E9456048C2FCF910C94F119EF921A
:10340000FF920F931F93CF93DF937C018091EB0585
:10341000D4E0833309F0D8E007ED15E0C0E0F8010F
:10342000219131918F01F701848195812817390706
:1034300029F0CF5FDC13F3CF80E006C08C2F0E9411
:10344000F5198431B1F781E0DF91CF911F910F9190
:10345000FF90EF900895CF93DF93EC018C85883037
:10346000D0F40E94F519843189F0882379F08831ED
:1034700069F021E08C3159F4E881F9810084F1850B
:10348000E02DCE01199521E0892B09F420E0822F4F
:10349000DF91CF91089580E0FBCFCF92DF92EF9242
:1034A000FF92CF93DF93EC018C85883068F40E9403
:1034B000CC190E949C076B017C018C850E94F51938
:1034C000811109C088E08C87DF91CF91FF90EF9048
:1034D000DF90CF90089561E070E080E090E00E947E
:1034E00069070E949C07AB01BC014C195D096E097C
:1034F0007F098D859E85B0E0A0E0481759076A07CF
:103500007B07D8F28C850E94D819DCCFCF93FC01C1
:10351000C08D80E591E00E94560460E270E08C2F3F
:103520000E94BC1962E070E08C2F0E949F1984FDFC
:1035300016C062E070E08C2F0E949F1983FF0AC0C2
:1035400048E162E070E08C2F0E94441080E090E03F
:10355000CF91089580E591E00E945604E3CF40E1C9
:1035600062E070E08C2F0E94441081E0F0CFCF9396
:10357000DF931F92CDB7DEB741E050E0BE016F5F31
:103580007F4F90E080E00E94141989810F90DF91B5
:10359000CF910895CF93DF93C4E1D0E00E94B71A92
:1035A000882361F061E070E080E090E00E946907AC
:1035B0002197A1F780E0DF91CF91089581E0FBCFC3
:1035C000CF92DF92EF92FF921F93CF93DF93CDB70D
:1035D000DEB76A970FB6F894DEBF0FBECDBFFA0113
:1035E00026EF32E03A8329835FEF5B835C835D8360
:1035F0001E8238872F83C280D380E480F580C986FD
:10360000DA86EB86FC86FB014281538164817581F9
:103610004F87588B698B7A8B3C8B2B8BFC0182817B
:103620009381A481B5818D8B9E8BAF8BB88F809158
:10363000ED0581119BC060E372E080E090E00E94A4
:1036400069071FB7F8948091EA05811127C0E4E16A
:10365000F8E08491E9EAF7E09491E82FF0E0EE0FCA
:10366000FF1FE65AF84FA591B491EC91E92321F49C
:1036700061E085E30E948D0661E085E30E94BB0660
:103680008CB580618CBD8CB580648CBD61E084E3B9
:103690000E94BB0661E083E30E94BB068091EA05BD
:1036A0008F5F8093EA051FBFE5E2F8E0E491F0E068
:1036B000EE0FFF1FE05CF84F859194919093E90520
:1036C0008093E805EAEBF7E0E491E093E70561E039
:1036D00086E40E94BB060E941C0F80E591E00E94D8
:1036E000560484E38093EB0580E80E94E60F0E9475
:1036F000CA1A882309F46EC088E00E94E60F0E946F
:10370000B71A883009F066C080E10E94E60F0E9477
:10371000B71A803109F05EC080E00E94E60F0E9477
:10372000B71A182F811156C041E050E0BE01675E04
:103730007F4F8FE190E00E941419898D833009F04A
:1037400049C080E48093EC0542E06EE170E0812F97
:103750000E94441042E06FE170E0812F0E9444100B
:103760001F5F183089F781E08093ED0580E591E0D7
:103770000E94560446E050E06EEE75E089E090E06D
:103780000E94380F44E050E0BE016B5E7F4F8FE037
:1037900090E00E94380F44E050E0BE01675F7F4F29
:1037A00081E090E00E94380F44E050E0BE016D5F80
:1037B0007F4F85E090E00E94380F8F859889A98916
:1037C000BA898093D8069093D906A093DA06B0936D
:1037D000DB0669C087E38093EB0580E80E94E60F73
:1037E0000E94CA1A882329F188E00E94E60F0E94ED
:1037F000B71A8830F1F480E10E94E60F0E94B71AF0
:10380000182F8031B1F480E00E94E60F0E94B71AB1
:1038100081110FC041E050E0BE01675E7F4F89E338
:1038200090E00E941419898D843019F41093EC05EE
:103830009ACF83E38093EB0580E80E94E60F0E9415
:10384000CA1A882371F180E10E94E60F0E94B71A1C
:10385000803139F582E10E94E60F0E94B71A823169
:1038600001F580E00E94E60F0E94B71A811119C08D
:1038700084E08093EC0515E51A8F41E050E0BE012D
:10388000665E7F4F8BE190E00E94380F198F41E018
:1038900050E0BE01675E7F4F8AE190E00E94380FE2
:1038A00062CF1092EB056A960FB6F894DEBF0FBE9A
:1038B000CDBFDF91CF911F91FF90EF90DF90CF9020
:1038C00008951F93CF93DF931F92CDB7DEB7182FC4
:1038D00080E591E00E945604812F0E94F90F27E0B5
:1038E000129FF0011124E156FA4F22813381377083
:1038F00041E050E0BE016F5F7F4F820F931F0E9437
:10390000141989810F90DF91CF911F910895FC01C7
:10391000808D883040F4218D328D232B21F00E9440
:10392000611C90E008958FEF9FEF0895CF93DF9390
:10393000FC012485283028F08FEF9FEFDF91CF9195
:103940000895EC010190F081E02D0084F185E02DD7
:103950001995892B89F38C850E94611C90E0EECF2C
:10396000DA01E091EC05F0E0FE2FEE27E60FF71FFD
:1039700090E0982F8827A901BD018E0F9F1F0C94FE
:1039800014198F929F92AF92BF92CF92DF92EF92D3
:10399000FF920F931F93CF93DF93CDB7DEB760975E
:1039A0000FB6F894DEBF0FBECDBF7C019091EB0542
:1039B000911115C018E0812F60960FB6F894DEBF04
:1039C0000FBECDBFDF91CF911F910F91FF90EF9070
:1039D000DF90CF90BF90AF909F908F90089508E0B8
:1039E000933309F404E06B0180E591E00E945604F2
:1039F0009E012F5F3F4F5901490110E0812F0E9426
:103A0000F119F40181934F018823C1F01F5F011365
:103A1000F5CF00E0F50181915F018D3149F08831EA
:103A200039F08A51823020F00F5F1013F3CFC2CFEC
:103A300060E170E0802F0E94BC19102FA12EB12CE4
:103A4000F501EE0FFF1FE952FA4F1182108283EE4B
:103A500093E00197F1F742E870E060E0812F0E9467
:103A600044104FEF62E070E0812F0E944410B601D5
:103A7000C114D10491F4809106029091070201963D
:103A80008115F0EC9F0708F45CC0909307028093C7
:103A900006026091060270910702812F0E942E108B
:103AA00086E0E8E1F2E0DE01199601900D928A9538
:103AB000E1F7F70183818F778C8784818D878581FA
:103AC0008E87A7014E5F5F4F24E030E06CE070E02E
:103AD000812F0E940710B601812F0E94181026E046
:103AE00030E0AE01475F5F4F66E070E0812F0E94DB
:103AF000071061E070E0812F0E94BC1927E02A9D29
:103B0000C0012B9D900D11249C0121563A4F790143
:103B1000F9011182108222E030E0AE01415F5F4F77
:103B200068E270E0812F0E94B01C8F8598899827E9
:103B300089279827F701938382831682158214823E
:103B40003ACF80E090ECA1CFCF92DF92EF92FF923C
:103B50000F931F93CF93DF9300D000D0CDB7DEB784
:103B60008C016B017A01FC01808D883010F40E9479
:103B7000D81986EF92E09A838983F6018281938136
:103B8000A481B5818B839C83AD83BE83B701CE01B5
:103B900001960E94C11CF801808F8830A0F4F58640
:103BA000E486128E118E81E026960FB6F894DEBF61
:103BB0000FBECDBFDF91CF911F910F91FF90EF907E
:103BC000DF90CF90089580E0EFCF7F928F929F9209
:103BD000AF92BF92CF92DF92EF92FF920F931F931B
:103BE000CF93DF931F921F92CDB7DEB7782E8B0154
:103BF0004A01590122E030E0AE014F5F5F4F64E2BD
:103C000070E00E94B01CE980FA80FE24EF24FE24BC
:103C1000E00EF11E970137704091EB05072D10E083
:103C2000433309F042C0085F1F4F102F0027110FC8
:103C3000110F110FC901800F911F4733C9F1A9015D
:103C40004A0D5B1D4130584098F160E078E06B010F
:103C5000C21AD30AA601B4010E94380FA5014C195B
:103C60005D09B4016C0D7D1DC8010E94380FEA0C7E
:103C7000FB1CF982EA8222E030E0AE014F5F5F4F29
:103C800064E270E0872D0E9407100F900F90DF9183
:103C9000CF911F910F91FF90EF90DF90CF90BF9049
:103CA000AF909F908F907F900895005F1F4FBDCF82
:103CB000A501B401DACFEF92FF921F93CF93DF9368
:103CC0001F921F92CDB7DEB7182F22E030E0AE0171
:103CD0004F5F5F4F60E270E00E94B01CE980FA80A5
:103CE000FE24EF24FE2422E030E0AE014F5F5F4F60
:103CF00060E270E0812F0E94B01C89819A81982730
:103D000089279827E816F90689F487E0189FF001BB
:103D10001124E156FA4FF582E482C7010F900F900B
:103D2000DF91CF911F91FF90EF9008957C01DBCF41
:103D30001F93CF93DF93182F80E591E00E945604E4
:103D4000812F0E945B1EEC01812F0E94F1198731A7
:103D500021F08C3111F0D0E0C0E0CE01DF91CF91A5
:103D60001F910895CF93DF93EC018C85883060F428
:103D70000E94F519873111F08C3131F48C850E9445
:103D8000981E8115984088F3DF91CF910895FC012A
:103D90008485883010F40C94981E90E080E008959B
:103DA000CF92DF92EF92FF921F93CF93DF93182F62
:103DB0007B01EA014130584010F0C0E0D8E080E5D6
:103DC00091E00E945604812F0E945B1E6C01812F9E
:103DD0000E94F119873111F08C3121F5CC16DD06E6
:103DE00070F380E591E00E9456049E01A70170E007
:103DF00060E0812F0E94E51D60E270E0812F0E944B
:103E0000BC1962E070E0812F0E949F1984FD0DC0F3
:103E1000812F0E94F1198823B9F080E591E00E947A
:103E20005604EFCFD0E0C0E0DCCF40E162E070E0CC
:103E3000812F0E944410CE01DF91CF911F91FF90FE
:103E4000EF90DF90CF900895D0E0C0E0F4CF0F93D3
:103E50001F93CF93DF938C01EA01FC0184858830A6
:103E600048F40E94D01E892B39F481E090E0F801DB
:103E700093838283D0E0C0E0CE01DF91CF911F9188
:103E80000F9108959F92AF92BF92CF92DF92EF92DF
:103E9000FF920F931F93CF93DF938C015B01942EBE
:103EA000E52EFC01C688D788F08C80E591E00E9461
:103EB00056048F2D0E945B1EC92DDE2D8C179D0789
:103EC00008F4EC019E01A501B6018F2D0E94E51DAD
:103ED000F801868997898C0F9D1F978B868BCE0161
:103EE000DF91CF911F910F91FF90EF90DF90CF90D6
:103EF000BF90AF909F900895FF920F931F93CF9321
:103F0000DF931F921F92CDB7DEB7F82E22E030E08C
:103F1000AE014F5F5F4F66E270E00E94B01C098106
:103F20001A8110270127102722E030E0AE014F5FF1
:103F30005F4F66E270E08F2D0E94B01C89819A81EC
:103F40009827892798270817190749F4C8010F905F
:103F50000F90DF91CF911F910F91FF9008958C01E9
:103F6000E3CF1F93CF93DF93182F87E0189FE001D3
:103F70001124C156DA4F88819981009761F480E558
:103F800091E00E945604812F0E947C1F2E81821B8B
:103F9000910999838883DF91CF911F9108959F9212
:103FA000AF92BF92CF92DF92EF92FF920F931F9347
:103FB000CF93DF93EC017B018091EB05811121C050
:103FC0001B821A8288EE93E0A0E0B0E08C839D8390
:103FD000AE83BF8380EA92E09983888388E08C87F0
:103FE00088EE93E09E878D87CE01DF91CF911F9160
:103FF0000F91FF90EF90DF90CF90BF90AF909F9088
:10400000089534E0932E833311F028E0922E87ED4B
:10401000C82E85E0D82E10E098E0B92EA12CD6014C
:104020002D913D916D01F701848195812817390704
:1040300091F4812F0E94F519082F873111F08C31EE
:1040400039F5812F0E94B11F892B59F50C3119F4D4
:10405000812F0E94CC191F5F9112E1CFA11008C0DF
:10406000D701ED91FC910084F185E02DC7011995F0
:104070001B821A8288EE93E0A0E0B0E08C839D83DF
:10408000AE83BF8380EA92E099838883BC86A8CF01
:10409000843149F08111DFCFF6013297118210820D
:1040A000DACFB12ED8CFAA24A394D5CF8F929F92E6
:1040B000AF92BF92CF92DF92EF92FF920F931F9336
:1040C000CF93DF93CDB7DEB72F970FB6F894DEBF4F
:1040D0000FBECDBF5C014B017A018091EB058823B7
:1040E000C9F104E0833309F008E0B501CE0101967F
:1040F0000E94CF1F87EDC82E85E0D82E10E0F60174
:10410000219131916F01F50184819581281739073B
:1041100051F4812F0E94F519873129F4A701B401C8
:10412000812F0E94D01E1F5F0113E9CFC7012F9678
:104130000FB6F894DEBF0FBECDBFDF91CF911F91B8
:104140000F91FF90EF90DF90CF90BF90AF909F9036
:104150008F900895F12CE12CE9CFFC018485883003
:1041600010F40C94B11F90E080E008954F925F929C
:104170007F928F929F92AF92BF92CF92DF92EF92F7
:10418000FF920F931F93CF93DF931F921F92CDB790
:10419000DEB7782E6B014A01A82EB12C27E0829F52
:1041A000C0011124FC01E156FA4F7F010081118109
:1041B00080E591E00E9456040815190554F4872DF6
:1041C0000E947C1FF70126818C01021B11091183BB
:1041D00000830115110519F5872D0E94F11984310D
:1041E00059F0882349F001E010E08C3111F410E01F
:1041F00000E0119501951109C8010F900F90DF9112
:10420000CF911F910F91FF90EF90DF90CF90BF90D3
:10421000AF909F908F907F905F904F900895801601
:1042200091060CF4840187E08A9DF0018B9DF00DCE
:104230001124E156FA4FE280F380C114D10451F108
:104240002701F7E05F22872D0E94F90F840D951D4D
:104250002091EB05273309F453C09801240D351D37
:104260002130384008F44CC020E038E0490184187F
:104270009508A401B6010E9414192601480C591C86
:104280006801C818D908872D0E94F90FA601B2014C
:104290000E941419E00EF11E87E08A9DF0018B9DAB
:1042A000F00D1124E156FA4FF382E2822081318130
:1042B000201B310B318320838681800F912F911D2C
:1042C0008A3F910510F4232BF1F487E08A9DF001D9
:1042D0008B9DF00D1124E156FA4F1682F982EA8285
:1042E00022E030E0AE014F5F5F4F68E270E0872D63
:1042F0000E94071060E470E0872D0E94BC197CCFFB
:10430000A801B601C5CF868377CFCF93DF93FC0199
:10431000218D328D2115310529F48FEF9FEFDF912B
:10432000CF910895EC01808D4217530708F0A90141
:104330000E94B6201816190684F7298D3A8D281B7D
:10434000390B3A8F298FEBCF0F931F93CF93DF93C6
:104350001F92CDB7DEB7FC01218D328D232B41F4A6
:104360008FEF9FEF0F90DF91CF911F910F910895E5
:104370008C0141E050E0BE016F5F7F4FFC01808DFA
:104380000E94B620181619065CF7F801818D928DEF
:104390000197928F818F898190E0E4CFCF93DF9353
:1043A0001F92CDB7DEB741E050E0BE016F5F7F4F97
:1043B000FC0184850E94B6201816190634F4898100
:1043C00090E00F90DF91CF9108958FEF9FEFF9CF9D
:1043D0002F923F924F925F926F927F928F929F9215
:1043E000AF92BF92DF92EF92FF920F931F93CF9302
:1043F000DF93CDB7DEB72F970FB6F894DEBF0FBEB1
:10440000CDBF60EA76E0CE0101960E94CF1FCE01BB
:1044100001960E94AD20892B09F444C06AE070E047
:1044200080E090E00E94690709E71EE0CE01019656
:104430000E94AD20892B41F0CE0101960E94CE2131
:10444000D8018D938D01F2CF8091800E90E0813064
:104450009105B9F022E030E082309105A1F023E02F
:1044600030E08330910599F024E030E0843091050C
:1044700091F030E020E08530910529F425E030E02E
:104480000DC021E030E08630910509F485C08F3001
:10449000910509F484C0409709F484C030937E0FDD
:1044A00020937D0F80917D0F90917E0F0197029751
:1044B00008F08BC08091810E9091820E98278927F9
:1044C00098272091830E3091840E3227232732279C
:1044D000A90137FF02C0495F5F4F13E0559547952B
:1044E0001A95E1F7BA0103E0660F771F0A95E1F725
:1044F0006217730714F44F5F5F4F23E0240F20937C
:104500007E0E4093810EE2E8FEE0312C212C812CBE
:10451000912C54018394241635060CF04AC0108265
:1045200030E020E08901080F191FD80174E0B6952A
:10453000A7957A95E1F724013501022E04C0440CB9
:10454000551C661C771C0A94D2F7D0807D01EE0CB6
:10455000FF1CB7016157744F7B01BD01A4E0660FDA
:10456000771FAA95E1F7061B170BD7016D917C9178
:1045700002C0769567950A95E2F760FF16C04D2850
:1045800040822F5F3F4F2830310561F6BFEF2B1A75
:104590003B0A31960896BFCF26E030E07FCF2FE070
:1045A00030E07CCF20E130E079CF4094D420D0823D
:1045B000E8CF475F5F4F69E77EE0CE0101960E943A
:1045C000271F10927E0F10927D0F80917D0F90918A
:1045D0007E0F03970297C8F5E091810EF091820E4D
:1045E000FE27EF27FE278091830E9091840E982757
:1045F00089279827AC01440F551F23E0240F2093EF
:104600007E0E4093810EEE0FFF1FE157F44FA2E89C
:10461000BEE030E020E0281739075CF4608171814A
:1046200032967C9311966C9311972F5F3F4F1296A1
:10463000F2CF475F5F4F69E77EE0CE0101960E94AF
:10464000271F10927E0F10927D0F80917D0F909109
:104650007E0F059759F50091810E1091820E10275B
:10466000012710278091830E9091840E8F3F910532
:1046700021F461E0C8010E9480048091830E909132
:10468000840E892B21F460E0C8010E94800486E03A
:1046900080937E0E4CE050E069E77EE0CE0101960B
:1046A0000E94271F10927E0F10927D0F80917D0F28
:1046B00090917E0F069719F5E091810EF091820E90
:1046C000FE27EF27FE27EE0FFF1FE157F44F8091E3
:1046D000830E9091840E9827892798279183808351
:1046E00086E080937E0E4CE050E069E77EE0CE01EC
:1046F00001960E94271F10927E0F10927D0F8091CD
:104700007D0F90917E0F0F97F1F50091810E109122
:10471000820E102701271027E090830EF090840E60
:10472000FE24EF24FE2486E080937E0EB12CA12C83
:10473000AE14BF04E4F4F50193E0F595E7959A957E
:10474000E1F7EA57F14F608170E0C5018770992762
:1047500002C0759567958A95E2F76170C501800F73
:10476000911F0E948004EFEFAE1ABE0AE1CF4CE029
:1047700050E069E77EE0CE0101960E94271F10926B
:104780007E0F10927D0F80917D0F90917E0F40974C
:10479000A1F5E091810EF091820EFE27EF27FE2712
:1047A0004091830E5091840E54274527542786E06C
:1047B00080937E0EA6E8BEE0EE0FFF1FE157F44F98
:1047C00090E080E08417950764F42C9111963C9159
:1047D000119723273227232721933193019612968D
:1047E000F1CF4CE050E069E77EE0CE0101960E94F7
:1047F000271F10927E0F10927D0F2F960FB6F89400
:10480000DEBF0FBECDBFDF91CF911F910F91FF9003
:10481000EF90DF90BF90AF909F908F907F906F90C0
:104820005F904F903F902F900895FC0184858830D1
:1048300010F40C94B62090E080E008958F929F923F
:10484000AF92BF92CF92DF92EF92FF920F931F939E
:10485000CF93DF9300D000D000D01F92CDB7DEB74A
:104860009091EB05911115C018E0812F2A960FB693
:10487000F894DEBF0FBECDBFDF91CF911F910F9196
:10488000FF90EF90DF90CF90BF90AF909F908F9070
:10489000089528E0F22E933311F494E0F92E6B0181
:1048A000082F80E591E00E9456049E012F5F3F4F44
:1048B0005901490110E0812F0E94F119F4018193FF
:1048C0004F018823C1F01F5FF112F5CFF12CF501E4
:1048D00091915F019D3149F0983139F09A519230B0
:1048E00020F0F3941F11F3CFBFCF60E170E08F2D64
:1048F0000E94BC191F2DE12EF12CF701EE0FFF1FB6
:10490000E952FA4F1182108283EE93E00197F1F79A
:10491000402F70E060E0812F0E9444104FEF62E072
:1049200070E0812F0E944410B601CD2889F4809157
:1049300006029091070201968115F0EC9F0798F10D
:10494000909307028093060260910602709107021D
:10495000812F0E942E1061E070E0812F0E94BC190F
:1049600027E02E9DC0012F9D900D11249C01215602
:104970003A4F7901F9011182108222E030E0AE0154
:10498000475F5F4F68E270E0812F0E94B01C89850D
:104990009A85982789279827F7019383828316821F
:1049A0001582148262CF80E090ECCACF0F931F93E0
:1049B000CF93DF93EC018B01888D883010F40E9437
:1049C000D819B80182E00E941E24888F883050F4E4
:1049D0001D870C871A8E198E81E0DF91CF911F9170
:1049E0000F91089580E0F9CF0F931F93CF938C011F
:1049F000FC016481758181E20E941E24C82F8830E9
:104A0000F8F480E591E00E9456048C2F0E94F11981
:104A1000833131F08C2FCF911F910F910C94CC19D1
:104A200062E070E08C2F0E94BC19F80184819581AE
:104A3000EC2FF0E0EE0FFF1FE952FA4F91838083D5
:104A4000CF911F910F910895CF92DF92EF92FF9235
:104A50001F93CF93DF93EC017B016A018C85883033
:104A600048F40E94F519882319F08C850E94CC190E
:104A700088E08C87F70182819381A481B5810097BA
:104A8000A105B10551F490E080E0DF91CF911F9135
:104A9000FF90EF90DF90CF9008958F3F9F4FAF4FE3
:104AA000BF4F89F370E060E081E20E941E24182F5E
:104AB0008C87883040F780E591E00E945604A7017A
:104AC0004E5F5F4F24E030E06CE070E0812F0E9489
:104AD0000710B601812F0E94181064E070E0812F4A
:104AE0000E94BC190E949C076B017C018C850E946E
:104AF000F519873111F18C3101F1882321F20E94DF
:104B00009C07AB01BC014C195D096E097F098D85BD
:104B10009E85B0E0A0E084179507A607B70738F098
:104B200061E070E080E090E00E946907DFCF8C8553
:104B30000E94D81988E08C87A6CF81E090E0A5CFAD
:104B40000F931F93CF93DF931F921F92CDB7DEB7C2
:104B5000FC0124852830E0F48C0180E591E00E947E
:104B6000560422E030E0AE014F5F5F4F60E170E03D
:104B7000F80184850E94B01C89819A819827892731
:104B800098270F900F90DF91CF911F910F9108956B
:104B900090E080E0F6CF0F931F93CF93DF931F92A7
:104BA0001F92CDB7DEB7FC0124852830E0F48C01DC
:104BB00080E591E00E94560422E030E0AE014F5FB4
:104BC0005F4F64E070E0F80184850E94B01C898129
:104BD0009A819827892798270F900F90DF91CF917E
:104BE0001F910F91089590E080E0F6CF0F931F93EF
:104BF000CF93DF9300D000D01F921F92CDB7DEB7C6
:104C00008C01D80159964D915C915A9741155105E7
:104C100051F0ED91FC91048CF58DE02D70E060E099
:104C2000C8011995EECFF801808D0E94B11F892B24
:104C3000B1F148E050E0BE016F5F7F4FD801589658
:104C40008C910E94B62018161906F4F4D8015096DB
:104C500084E0FE01319601900D928A95E1F78D81F5
:104C600090E0982F88272E81820F911DF801958B57
:104C7000848B8F81282F30E0322F22278885820F66
:104C8000932F911D928F818F28960FB6F894DEBFD7
:104C90000FBECDBFDF91CF911F910F91089590E08E
:104CA00080E0F2CF4F925F926F927F928F929F92AD
:104CB000AF92BF92CF92DF92EF92FF920F931F932A
:104CC000CF93DF93CDB7DEB763970FB6F894DEBF0F
:104CD0000FBECDBF7C016B013A01FB0120E090E0EB
:104CE00080E06AE03191332309F461C040ED430F65
:104CF0004A3008F04DC0689FA001699F500D1124F3
:104D0000CA01C097830F911D37FD9A958F3F91057A
:104D100049F340F3F70142815381648175818091A9
:104D2000AE069091AF06A091B006B091B1064817BB
:104D300059076A077B0709F40DC28701085F1F4FF7
:104D40000E949C076F7077277C5FC8010E94D62461
:104D5000813009F004C286EF92E09A838983F701DB
:104D600082819381A481B5818B839C83AD83BE8333
:104D700045E350E0BE016F5F7F4FC8010E94CA103B
:104D8000892BA9F5D12CC12CC8010E94E41917C0A8
:104D90003E3209F0BFCF233009F4BCCFD301A20FBC
:104DA000B11D12968C932F5F90E080E09BCF233053
:104DB00009F0B0CFF3018583CC24C394D12CC60174
:104DC00063960FB6F894DEBF0FBECDBFDF91CF91D3
:104DD0001F910F91FF90EF90DF90CF90BF90AF9019
:104DE0009F908F907F906F905F904F9008950E945A
:104DF0009C07F7017783668342E050E0B7016A5F62
:104E00007F4FC8010E94421F81E090E09A8389830E
:104E100042E050E0BE016F5F7F4FC8010E94421F19
:104E200080E091E09A83898342E050E0BE016F5FA9
:104E30007F4FC8010E94421F1A82198242E050E04F
:104E4000BE016F5F7F4FC8010E94421F42E050E0E9
:104E5000BE016F5F7F4FC8010E94421F42E050E0D9
:104E6000BE016F5F7F4FC8010E94421F5601F601CD
:104E70008081882301F16501F60181912F0188234A
:104E800011F08E32B1F446018A189B0818141904E7
:104E900074F48D8641E050E0BE01635F7F4FC8012E
:104EA0000E94421FA401B501C8010E94421F520185
:104EB000DECF6201E1CF1D8641E050E0BE01635FBD
:104EC0007F4FC8010E94421FC12CDD24D394DA8297
:104ED000C98242E050E0BE016F5F7F4FC8010E946F
:104EE000421FDA82C98242E050E0BE016F5F7F4F0D
:104EF000C8010E94421FC8010E94861A892B09F42A
:104F000041CFF3E0AF2EB12C230122E0420E511C21
:104F1000D4C0F7014281538164817581808D918D68
:104F2000A28DB38D481759076A077B0709F008C19E
:104F3000848D958DC59709F003C181A192A15DEF84
:104F4000C52EDD24DA940C970CF4ADC04CE050E093
:104F5000BE016F5F7F4FC8010E9485218B819C81BC
:104F60009827892798279A8B898BF7014681578143
:104F700029813A814217530709F0E7C097FFE5C03E
:104F80008F7092703BEFC32EDD24DA94892B09F0E9
:104F90008AC06F8078847624672476242AEFC22E14
:104FA000DD24DA946114710409F47DC0D12CC12C84
:104FB0008D819E81982789279827C816D906F8F4ED
:104FC00041E050E0BE01635F7F4FC8010E94852130
:104FD0004D85442331F050E070E060E0C8010E944C
:104FE00085218D858111ECCF44E050E070E060E0D8
:104FF000C8010E948521FFEFCF1ADF0AD9CF912C7B
:10500000812C41E050E0BE016D5E7F4FC8010E94DF
:1050100085214B89842F807C09F06CC0442331F0BA
:1050200050E070E060E0C8010E9485218B89811109
:10503000E8CF42E050E0BE01615F7F4FC8010E94AF
:10504000852142E050E0BE01635F7F4FC8010E94AE
:10505000852144E050E070E060E0C8010E948521B5
:1050600042E050E0BE016F5E7F4FC8010E94852183
:105070008F85988949895A898115914009F043C0E3
:10508000CD84DE84DC24CD24DC2481E0C816D10468
:10509000D1F54115544009F04AC044E050E0B20156
:1050A000C8010E94852121E0A21AB10809F46CCE42
:1050B000FFEFCF16DF0609F067CE0E949C073B0189
:1050C0004C01C8010E94F625181619060CF421CFD0
:1050D0000E949C0766197709880999096938734104
:1050E0008105910548F562E370E080E090E00E9460
:1050F0006907E7CF41E050E070E060E0C8010E943E
:1051000085211B8A93CF54274527542770E060E000
:10511000C8010E948521FFEF8F1A9F0A6814790445
:1051200009F06FCF96EFC92EDD24DA94BCCFE7EFFC
:10513000CE2EDD24DA94B7CFCC24CA94DC2CB3CFA6
:105140006EEFC62EDD24DA94AECF4CEFC42EDD24F4
:10515000DA94A9CF8EEFC82EDD24DA9430CED12C8C
:10516000C12C2DCECF92DF92EF92FF920F931F931F
:10517000CF93DF93CDB7DEB7AF970FB6F894DEBF0E
:105180000FBECDBF7C016A0106EF12E01A830983CE
:105190001C861B8688EE93E0A0E0B0E08D879E879A
:1051A000AF87B88B86E492E09A878987188F0F8B38
:1051B000198E1A8E1B8E1C8E88E089A31BA70AA746
:1051C0001CA61DA61EA61FA68091D8069091D906E2
:1051D000A091DA06B091DB068EA39FA3A8A7B9A77A
:1051E0008B839C83AD83BE8318861F82AE01465D90
:1051F0005F4FCE0101960E94522681309105B1F495
:10520000D701ED91FC910488F589E02D1DA30CA335
:105210008CA59DA5AEA5BFA58EA39FA3A8A7B9A742
:10522000A601BE016C5D7F4FC7011995AF960FB601
:10523000F894DEBF0FBECDBFDF91CF911F910F91CC
:10524000FF90EF90DF90CF900895CF92DF92EF9292
:10525000FF920F931F93CF93DF93CDB7DEB7AF9736
:105260000FB6F894DEBF0FBECDBF8C016B017A0183
:1052700086EF92E09A8389831B821C821D821E82A4
:105280001C861B8648EE53E060E070E04D875E8729
:105290006F87788B26E432E03A872987988F8F8B47
:1052A000198E1A8E1B8E1C8E28E029A39BA78AA715
:1052B0001CA61DA61EA61FA6D8011C968C91883080
:1052C00060F40E94F519882321F0F80184850E947A
:1052D000CC1988E0D8011C968C938091D8069091C7
:1052E000D906A091DA06B091DB068EA39FA3A8A7EA
:1052F000B9A78B839C83AD83BE8318861F82AE01C2
:10530000465D5F4FB601CE0101960E94522600977E
:10531000C1F0D801ED91FC910684F785E02D86EF70
:1053200092E09DA38CA38CA59DA5AEA5BFA58EA341
:105330009FA3A8A7B9A7A701BE016C5D7F4FC801B5
:105340001995AF960FB6F894DEBF0FBECDBFDF91B3
:10535000CF911F910F91FF90EF90DF90CF90089524
:10536000EF92FF920F931F93CF93DF9300D01F9282
:10537000CDB7DEB78C017B01FB0184858830A8F0B6
:1053800086EF92E0F8019183808312821382148267
:105390001582C8010F900F900F900F90DF91CF9161
:1053A0001F910F91FF90EF90089580E591E00E948A
:1053B000560424E030E0AE014F5F5F4F6CE070E0D8
:1053C000F70184850E94B01C86EF92E0F80191837A
:1053D000808389819A81AB81BC8182839383A483FA
:1053E000B583D7CFCF92DF92EF92FF920F931F93A7
:1053F000CF93DF93EB017B0124E0E20EF11C8B01E4
:105400006C01C61AD70AC601800F911F0E945B402B
:10541000F80181938F01EE15FF05A9F7CE01DF9109
:10542000CF911F910F91FF90EF90DF90CF90089553
:10543000FF920F931F93CF93DF93EC01F62E088119
:105440001981C8010E945B40F81621F06F2DC80138
:105450000E946340CE01DF91CF911F910F91FF9089
:105460000895CF92DF92EF92FF920F931F93CF9305
:10547000DF931F921F92CDB7DEB76C017C010BE268
:1054800010E01A830983F70161917F01CE01019633
:105490000E94182A0F5F1F4F0133110591F7C601B3
:1054A0000F900F90DF91CF911F910F91FF90EF9090
:1054B000DF90CF900895AF92BF92CF92DF92EF929C
:1054C000FF920F931F93CF93DF931F921F92CDB73D
:1054D000DEB78B016B0124E0C20ED11C7B015C01A5
:1054E000A61AB70AC5018E0D9F1D9A838983F701FD
:1054F00061917F01CE0101960E94182AEC14FD04EF
:1055000089F7C8010F900F90DF91CF911F910F91F4
:10551000FF90EF90DF90CF90BF90AF900895AF9243
:10552000BF92CF92DF92EF92FF920F931F93CF9390
:10553000DF931F921F92CDB7DEB78B016B0124E082
:10554000C20ED11C7B015C01A61AB70AC5018E0DE3
:105550009F1D9A838983F70161917F01CE01019696
:105560000E94182AEC14FD0489F7C8010F900F90CF
:10557000DF91CF911F910F91FF90EF90DF90CF902F
:10558000BF90AF900895EF92FF920F931F93CF9328
:10559000DF931F921F92CDB7DEB78FEFE82E86E024
:1055A000F82E01E310E01A830983F70161917F016E
:1055B000CE0101960E94182A0F5F1F4F0833110574
:1055C00091F70F900F90DF91CF911F910F91FF9066
:1055D000EF900895DF92EF92FF920F931F93CF9376
:1055E000DF937B01EA01DB01ED91FC911197908142
:1055F000943609F452C09D3609F057C069E876E048
:10560000833009F04EC012968D919C910E940A4001
:105610008C01F701848195810E940A40F82EF6E002
:10562000F017B0F0F817A0F01127F801E251F94F88
:10563000818B0E94C32A41E0BE018EEE96E0DF918D
:10564000CF911F910F91FF90EF90DF900C94631614
:1056500066E376E0CE010E94140868E974E0CE01AA
:105660000E94E4154AE050E0602FCE010E94F21340
:105670006CE974E0CE010E94E4154AE050E06F2D21
:10568000CE010E94F213CE01DF91CF911F910F91B5
:10569000FF90EF90DF900C941A1569E676E0813068
:1056A00051F2CE010E941408EECF6FE476E0F9CFFC
:1056B000CF93DF9300D000D01F921F92CDB7DEB7FB
:1056C0008EE190E09A83898362E0CE0101960E9488
:1056D000182A8091670B9091680BA091690BB0918B
:1056E0006A0B8D839E83AF83B887BE016B5F7F4F4C
:1056F0008FE190E00E948F2A8091610B9091620B64
:10570000A091630BB091640B8D839E83AF83B887A8
:10571000BE016B5F7F4F83E290E00E948F2A8091F1
:105720005B0B90915C0BA0915D0BB0915E0B8D8338
:105730009E83AF83B887BE016B5F7F4F87E290E0A7
:105740000E948F2A80E092E00E94312AEEEEF6E07D
:10575000118A81E0828B82E0838B83E0848B84E0FA
:10576000858B85E0868B86E0878B0E94C32A83E445
:1057700095E8A0E0B0E089839A83AB83BC83BE0147
:105780006F5F7F4F88E390E00E945B2A28960FB6F8
:10579000F894DEBF0FBECDBFDF91CF910895EF9299
:1057A000FF920F931F93CF93DF9300D01F92CDB73B
:1057B000DEB78EE190E00E945B40823011F00E94E3
:1057C000582BBE016F5F7F4F8FE190E00E94F2295E
:1057D00089819A81AB81BC8180938B0B90938C0BD8
:1057E000A0938D0BB0938E0BBE016F5F7F4F83E252
:1057F00090E00E94F22989819A81AB81BC818093DB
:10580000850B9093860BA093870BB093880BBE01FA
:105810006F5F7F4F87E290E00E94F22989819A8131
:10582000AB81BC8180937F0B9093800BA093810B05
:10583000B093820B9EEEE92E95E0F92E0BE210E07C
:10584000C8010E945B40F70181937F010F5F1F4FEA
:1058500001331105A9F78FEFE82E86E0F82EC80175
:105860000E945B40F70181937F010F5F1F4F083358
:105870001105A9F76FEE7FE088E390E00E94F2291E
:10588000BE016F5F7F4F8CE390E00E94F229898117
:105890009A81AB81BC81F8948093FA0F9093FB0FAF
:1058A000A093FC0FB093FD0F789460EA74E084EF4E
:1058B00095E00E94E4154091EF0F5091F00F609138
:1058C000F10F7091F20F2AE084EF95E00E947013BF
:1058D00084EF95E00E941A1560EB74E084EF95E088
:1058E0000E94E41549815A816B817C812AE084EF12
:1058F00095E00E94701384EF95E00E941A1568EB02
:1059000074E084EF95E00E94E41569E87BE084EFA1
:1059100095E00E94441484EF95E00E941A1563EC10
:1059200074E084EF95E00E94E41563E87BE084EF87
:1059300095E00E94441484EF95E00E941A1563EDEF
:1059400074E084EF95E00E94E4156DE77BE084EF5E
:1059500095E00E94441484EF95E00E941A1584EFAC
:1059600095E00E94E6150F900F900F900F90DF9139
:10597000CF911F910F91FF90EF900895CF93DF93F8
:10598000CDB7DEB762970FB6F894DEBF0FBECDBFBE
:1059900062EE74E084EF95E00E94E41584EF95E0F8
:1059A0000E941A150E94582B0E94CF2B86EF92E07E
:1059B0009E878D8740917F0B5091800B6091810B6A
:1059C0007091820B4F87588B698B7A8B98878F8366
:1059D0004091850B5091860B6091870B7091880BDD
:1059E00049875A876B877C879A83898380918B0B41
:1059F00090918C0BA0918D0BB0918E0B8B839C831F
:105A0000AD83BE83AE01435F5F4FBE01695F7F4FD1
:105A1000CE0101960E94E01A62960FB6F894DEBF9E
:105A20000FBECDBFDF91CF910895CF93DF93EA01F1
:105A3000DB01ED91FC919081993609F46FC09237AA
:105A400009F472C065EE72E0943609F069C060E056
:105A500073E0813009F064C064E673E0CA010E941B
:105A6000140870E060E0CE010E94BC1361E774E0AE
:105A7000CE010E94E41569E070E0CE010E94BC13E3
:105A800061E774E0CE010E94E41561E070E0CE01B0
:105A90000E94BC13CE010E941A1567E573E0CE0187
:105AA0000E94140862E070E0CE010E94BC13CE0197
:105AB0000E941A156CE473E0CE010E94140869E894
:105AC0007BE0CE010E944414CE010E941A156CE3C3
:105AD00073E0CE010E94140863E87BE0CE010E94CF
